{
	"module1.sol": {
		"MyToken": {
			"abi": [
				{
					"inputs": [],
					"stateMutability": "nonpayable",
					"type": "constructor"
				},
				{
					"inputs": [
						{
							"internalType": "address",
							"name": "",
							"type": "address"
						}
					],
					"name": "balance",
					"outputs": [
						{
							"internalType": "uint256",
							"name": "",
							"type": "uint256"
						}
					],
					"stateMutability": "view",
					"type": "function"
				},
				{
					"inputs": [
						{
							"internalType": "uint256",
							"name": "_newMax",
							"type": "uint256"
						}
					],
					"name": "changeMaxTransaction",
					"outputs": [],
					"stateMutability": "nonpayable",
					"type": "function"
				},
				{
					"inputs": [
						{
							"internalType": "address",
							"name": "_address",
							"type": "address"
						},
						{
							"internalType": "uint256",
							"name": "_number",
							"type": "uint256"
						}
					],
					"name": "deposit",
					"outputs": [],
					"stateMutability": "nonpayable",
					"type": "function"
				},
				{
					"inputs": [],
					"name": "maxTransaction",
					"outputs": [
						{
							"internalType": "uint256",
							"name": "",
							"type": "uint256"
						}
					],
					"stateMutability": "view",
					"type": "function"
				},
				{
					"inputs": [],
					"name": "owner",
					"outputs": [
						{
							"internalType": "address",
							"name": "",
							"type": "address"
						}
					],
					"stateMutability": "view",
					"type": "function"
				},
				{
					"inputs": [],
					"name": "totalSupply",
					"outputs": [
						{
							"internalType": "uint256",
							"name": "",
							"type": "uint256"
						}
					],
					"stateMutability": "view",
					"type": "function"
				},
				{
					"inputs": [
						{
							"internalType": "address",
							"name": "_to",
							"type": "address"
						},
						{
							"internalType": "uint256",
							"name": "_amount",
							"type": "uint256"
						}
					],
					"name": "transfer",
					"outputs": [],
					"stateMutability": "nonpayable",
					"type": "function"
				},
				{
					"inputs": [
						{
							"internalType": "address",
							"name": "_address",
							"type": "address"
						},
						{
							"internalType": "uint256",
							"name": "_number",
							"type": "uint256"
						}
					],
					"name": "withdraw",
					"outputs": [],
					"stateMutability": "nonpayable",
					"type": "function"
				}
			],
			"devdoc": {
				"kind": "dev",
				"methods": {},
				"version": 1
			},
			"evm": {
				"assembly": "    /* \"module1.sol\":60:1438  contract MyToken {... */\n  mstore(0x40, 0x80)\n    /* \"module1.sol\":112:113  0 */\n  0x00\n    /* \"module1.sol\":86:113  uint public totalSupply = 0 */\n  dup1\n  sstore\n    /* \"module1.sol\":149:152  800 */\n  0x0320\n    /* \"module1.sol\":120:152  uint public maxTransaction = 800 */\n  0x01\n  sstore\n    /* \"module1.sol\":236:321  constructor() {... */\n  callvalue\n  dup1\n  iszero\n  tag_1\n  jumpi\n  0x00\n  dup1\n  revert\ntag_1:\n  pop\n    /* \"module1.sol\":269:279  msg.sender */\n  caller\n    /* \"module1.sol\":261:266  owner */\n  0x02\n  0x00\n    /* \"module1.sol\":261:279  owner = msg.sender */\n  0x0100\n  exp\n  dup2\n  sload\n  dup2\n  0xffffffffffffffffffffffffffffffffffffffff\n  mul\n  not\n  and\n  swap1\n  dup4\n  0xffffffffffffffffffffffffffffffffffffffff\n  and\n  mul\n  or\n  swap1\n  sstore\n  pop\n    /* \"module1.sol\":60:1438  contract MyToken {... */\n  dataSize(sub_0)\n  dup1\n  dataOffset(sub_0)\n  0x00\n  codecopy\n  0x00\n  return\nstop\n\nsub_0: assembly {\n        /* \"module1.sol\":60:1438  contract MyToken {... */\n      mstore(0x40, 0x80)\n      callvalue\n      dup1\n      iszero\n      tag_1\n      jumpi\n      0x00\n      dup1\n      revert\n    tag_1:\n      pop\n      jumpi(tag_2, lt(calldatasize, 0x04))\n      shr(0xe0, calldataload(0x00))\n      dup1\n      0xc3f70b52\n      gt\n      tag_11\n      jumpi\n      dup1\n      0xc3f70b52\n      eq\n      tag_7\n      jumpi\n      dup1\n      0xcd73ab02\n      eq\n      tag_8\n      jumpi\n      dup1\n      0xe3d670d7\n      eq\n      tag_9\n      jumpi\n      dup1\n      0xf3fef3a3\n      eq\n      tag_10\n      jumpi\n      jump(tag_2)\n    tag_11:\n      dup1\n      0x18160ddd\n      eq\n      tag_3\n      jumpi\n      dup1\n      0x47e7ef24\n      eq\n      tag_4\n      jumpi\n      dup1\n      0x8da5cb5b\n      eq\n      tag_5\n      jumpi\n      dup1\n      0xa9059cbb\n      eq\n      tag_6\n      jumpi\n    tag_2:\n      0x00\n      dup1\n      revert\n        /* \"module1.sol\":86:113  uint public totalSupply = 0 */\n    tag_3:\n      tag_12\n      tag_13\n      jump\t// in\n    tag_12:\n      mload(0x40)\n      tag_14\n      swap2\n      swap1\n      tag_15\n      jump\t// in\n    tag_14:\n      mload(0x40)\n      dup1\n      swap2\n      sub\n      swap1\n      return\n        /* \"module1.sol\":463:663  function deposit(address _address, uint _number) public {... */\n    tag_4:\n      tag_16\n      0x04\n      dup1\n      calldatasize\n      sub\n      dup2\n      add\n      swap1\n      tag_17\n      swap2\n      swap1\n      tag_18\n      jump\t// in\n    tag_17:\n      tag_19\n      jump\t// in\n    tag_16:\n      stop\n        /* \"module1.sol\":159:179  address public owner */\n    tag_5:\n      tag_20\n      tag_21\n      jump\t// in\n    tag_20:\n      mload(0x40)\n      tag_22\n      swap2\n      swap1\n      tag_23\n      jump\t// in\n    tag_22:\n      mload(0x40)\n      dup1\n      swap2\n      sub\n      swap1\n      return\n        /* \"module1.sol\":1048:1323  function transfer(address _to, uint _amount) public {... */\n    tag_6:\n      tag_24\n      0x04\n      dup1\n      calldatasize\n      sub\n      dup2\n      add\n      swap1\n      tag_25\n      swap2\n      swap1\n      tag_18\n      jump\t// in\n    tag_25:\n      tag_26\n      jump\t// in\n    tag_24:\n      stop\n        /* \"module1.sol\":120:152  uint public maxTransaction = 800 */\n    tag_7:\n      tag_27\n      tag_28\n      jump\t// in\n    tag_27:\n      mload(0x40)\n      tag_29\n      swap2\n      swap1\n      tag_15\n      jump\t// in\n    tag_29:\n      mload(0x40)\n      dup1\n      swap2\n      sub\n      swap1\n      return\n        /* \"module1.sol\":1331:1435  function changeMaxTransaction(uint _newMax) public onlyOwner {... */\n    tag_8:\n      tag_30\n      0x04\n      dup1\n      calldatasize\n      sub\n      dup2\n      add\n      swap1\n      tag_31\n      swap2\n      swap1\n      tag_32\n      jump\t// in\n    tag_31:\n      tag_33\n      jump\t// in\n    tag_30:\n      stop\n        /* \"module1.sol\":188:227  mapping(address => uint) public balance */\n    tag_9:\n      tag_34\n      0x04\n      dup1\n      calldatasize\n      sub\n      dup2\n      add\n      swap1\n      tag_35\n      swap2\n      swap1\n      tag_36\n      jump\t// in\n    tag_35:\n      tag_37\n      jump\t// in\n    tag_34:\n      mload(0x40)\n      tag_38\n      swap2\n      swap1\n      tag_15\n      jump\t// in\n    tag_38:\n      mload(0x40)\n      dup1\n      swap2\n      sub\n      swap1\n      return\n        /* \"module1.sol\":671:1040  function withdraw(address _address, uint _number) public {... */\n    tag_10:\n      tag_39\n      0x04\n      dup1\n      calldatasize\n      sub\n      dup2\n      add\n      swap1\n      tag_40\n      swap2\n      swap1\n      tag_18\n      jump\t// in\n    tag_40:\n      tag_41\n      jump\t// in\n    tag_39:\n      stop\n        /* \"module1.sol\":86:113  uint public totalSupply = 0 */\n    tag_13:\n      sload(0x00)\n      dup2\n      jump\t// out\n        /* \"module1.sol\":463:663  function deposit(address _address, uint _number) public {... */\n    tag_19:\n        /* \"module1.sol\":548:549  0 */\n      0x00\n        /* \"module1.sol\":538:545  _number */\n      dup2\n        /* \"module1.sol\":538:549  _number > 0 */\n      gt\n        /* \"module1.sol\":530:583  require(_number > 0, \"Amount must be greater than 0\") */\n      tag_43\n      jumpi\n      mload(0x40)\n      0x08c379a000000000000000000000000000000000000000000000000000000000\n      dup2\n      mstore\n      0x04\n      add\n      tag_44\n      swap1\n      tag_45\n      jump\t// in\n    tag_44:\n      mload(0x40)\n      dup1\n      swap2\n      sub\n      swap1\n      revert\n    tag_43:\n        /* \"module1.sol\":609:616  _number */\n      dup1\n        /* \"module1.sol\":594:605  totalSupply */\n      0x00\n      dup1\n        /* \"module1.sol\":594:616  totalSupply += _number */\n      dup3\n      dup3\n      sload\n      tag_46\n      swap2\n      swap1\n      tag_47\n      jump\t// in\n    tag_46:\n      swap3\n      pop\n      pop\n      dup2\n      swap1\n      sstore\n      pop\n        /* \"module1.sol\":648:655  _number */\n      dup1\n        /* \"module1.sol\":627:634  balance */\n      0x03\n        /* \"module1.sol\":627:644  balance[_address] */\n      0x00\n        /* \"module1.sol\":635:643  _address */\n      dup5\n        /* \"module1.sol\":627:644  balance[_address] */\n      0xffffffffffffffffffffffffffffffffffffffff\n      and\n      0xffffffffffffffffffffffffffffffffffffffff\n      and\n      dup2\n      mstore\n      0x20\n      add\n      swap1\n      dup2\n      mstore\n      0x20\n      add\n      0x00\n      keccak256\n      0x00\n        /* \"module1.sol\":627:655  balance[_address] += _number */\n      dup3\n      dup3\n      sload\n      tag_48\n      swap2\n      swap1\n      tag_47\n      jump\t// in\n    tag_48:\n      swap3\n      pop\n      pop\n      dup2\n      swap1\n      sstore\n      pop\n        /* \"module1.sol\":463:663  function deposit(address _address, uint _number) public {... */\n      pop\n      pop\n      jump\t// out\n        /* \"module1.sol\":159:179  address public owner */\n    tag_21:\n      0x02\n      0x00\n      swap1\n      sload\n      swap1\n      0x0100\n      exp\n      swap1\n      div\n      0xffffffffffffffffffffffffffffffffffffffff\n      and\n      dup2\n      jump\t// out\n        /* \"module1.sol\":1048:1323  function transfer(address _to, uint _amount) public {... */\n    tag_26:\n        /* \"module1.sol\":1129:1130  0 */\n      0x00\n        /* \"module1.sol\":1119:1126  _amount */\n      dup2\n        /* \"module1.sol\":1119:1130  _amount > 0 */\n      gt\n        /* \"module1.sol\":1111:1164  require(_amount > 0, \"Amount must be greater than 0\") */\n      tag_50\n      jumpi\n      mload(0x40)\n      0x08c379a000000000000000000000000000000000000000000000000000000000\n      dup2\n      mstore\n      0x04\n      add\n      tag_51\n      swap1\n      tag_45\n      jump\t// in\n    tag_51:\n      mload(0x40)\n      dup1\n      swap2\n      sub\n      swap1\n      revert\n    tag_50:\n        /* \"module1.sol\":1206:1213  _amount */\n      dup1\n        /* \"module1.sol\":1183:1190  balance */\n      0x03\n        /* \"module1.sol\":1183:1202  balance[msg.sender] */\n      0x00\n        /* \"module1.sol\":1191:1201  msg.sender */\n      caller\n        /* \"module1.sol\":1183:1202  balance[msg.sender] */\n      0xffffffffffffffffffffffffffffffffffffffff\n      and\n      0xffffffffffffffffffffffffffffffffffffffff\n      and\n      dup2\n      mstore\n      0x20\n      add\n      swap1\n      dup2\n      mstore\n      0x20\n      add\n      0x00\n      keccak256\n      sload\n        /* \"module1.sol\":1183:1213  balance[msg.sender] >= _amount */\n      lt\n      iszero\n        /* \"module1.sol\":1175:1238  require(balance[msg.sender] >= _amount, \"Insufficient balance\") */\n      tag_52\n      jumpi\n      mload(0x40)\n      0x08c379a000000000000000000000000000000000000000000000000000000000\n      dup2\n      mstore\n      0x04\n      add\n      tag_53\n      swap1\n      tag_54\n      jump\t// in\n    tag_53:\n      mload(0x40)\n      dup1\n      swap2\n      sub\n      swap1\n      revert\n    tag_52:\n        /* \"module1.sol\":1274:1281  _amount */\n      dup1\n        /* \"module1.sol\":1251:1258  balance */\n      0x03\n        /* \"module1.sol\":1251:1270  balance[msg.sender] */\n      0x00\n        /* \"module1.sol\":1259:1269  msg.sender */\n      caller\n        /* \"module1.sol\":1251:1270  balance[msg.sender] */\n      0xffffffffffffffffffffffffffffffffffffffff\n      and\n      0xffffffffffffffffffffffffffffffffffffffff\n      and\n      dup2\n      mstore\n      0x20\n      add\n      swap1\n      dup2\n      mstore\n      0x20\n      add\n      0x00\n      keccak256\n      0x00\n        /* \"module1.sol\":1251:1281  balance[msg.sender] -= _amount */\n      dup3\n      dup3\n      sload\n      tag_55\n      swap2\n      swap1\n      tag_56\n      jump\t// in\n    tag_55:\n      swap3\n      pop\n      pop\n      dup2\n      swap1\n      sstore\n      pop\n        /* \"module1.sol\":1308:1315  _amount */\n      dup1\n        /* \"module1.sol\":1292:1299  balance */\n      0x03\n        /* \"module1.sol\":1292:1304  balance[_to] */\n      0x00\n        /* \"module1.sol\":1300:1303  _to */\n      dup5\n        /* \"module1.sol\":1292:1304  balance[_to] */\n      0xffffffffffffffffffffffffffffffffffffffff\n      and\n      0xffffffffffffffffffffffffffffffffffffffff\n      and\n      dup2\n      mstore\n      0x20\n      add\n      swap1\n      dup2\n      mstore\n      0x20\n      add\n      0x00\n      keccak256\n      0x00\n        /* \"module1.sol\":1292:1315  balance[_to] += _amount */\n      dup3\n      dup3\n      sload\n      tag_57\n      swap2\n      swap1\n      tag_47\n      jump\t// in\n    tag_57:\n      swap3\n      pop\n      pop\n      dup2\n      swap1\n      sstore\n      pop\n        /* \"module1.sol\":1048:1323  function transfer(address _to, uint _amount) public {... */\n      pop\n      pop\n      jump\t// out\n        /* \"module1.sol\":120:152  uint public maxTransaction = 800 */\n    tag_28:\n      sload(0x01)\n      dup2\n      jump\t// out\n        /* \"module1.sol\":1331:1435  function changeMaxTransaction(uint _newMax) public onlyOwner {... */\n    tag_33:\n        /* \"module1.sol\":383:388  owner */\n      0x02\n      0x00\n      swap1\n      sload\n      swap1\n      0x0100\n      exp\n      swap1\n      div\n      0xffffffffffffffffffffffffffffffffffffffff\n      and\n        /* \"module1.sol\":369:388  msg.sender == owner */\n      0xffffffffffffffffffffffffffffffffffffffff\n      and\n        /* \"module1.sol\":369:379  msg.sender */\n      caller\n        /* \"module1.sol\":369:388  msg.sender == owner */\n      0xffffffffffffffffffffffffffffffffffffffff\n      and\n      eq\n        /* \"module1.sol\":361:435  require(msg.sender == owner, \"Only contract owner can call this function\") */\n      tag_59\n      jumpi\n      mload(0x40)\n      0x08c379a000000000000000000000000000000000000000000000000000000000\n      dup2\n      mstore\n      0x04\n      add\n      tag_60\n      swap1\n      tag_61\n      jump\t// in\n    tag_60:\n      mload(0x40)\n      dup1\n      swap2\n      sub\n      swap1\n      revert\n    tag_59:\n        /* \"module1.sol\":1420:1427  _newMax */\n      dup1\n        /* \"module1.sol\":1403:1417  maxTransaction */\n      0x01\n        /* \"module1.sol\":1403:1427  maxTransaction = _newMax */\n      dup2\n      swap1\n      sstore\n      pop\n        /* \"module1.sol\":1331:1435  function changeMaxTransaction(uint _newMax) public onlyOwner {... */\n      pop\n      jump\t// out\n        /* \"module1.sol\":188:227  mapping(address => uint) public balance */\n    tag_37:\n      mstore(0x20, 0x03)\n      dup1\n      0x00\n      mstore\n      keccak256(0x00, 0x40)\n      0x00\n      swap2\n      pop\n      swap1\n      pop\n      sload\n      dup2\n      jump\t// out\n        /* \"module1.sol\":671:1040  function withdraw(address _address, uint _number) public {... */\n    tag_41:\n        /* \"module1.sol\":768:775  _number */\n      dup1\n        /* \"module1.sol\":747:754  balance */\n      0x03\n        /* \"module1.sol\":747:764  balance[_address] */\n      0x00\n        /* \"module1.sol\":755:763  _address */\n      dup5\n        /* \"module1.sol\":747:764  balance[_address] */\n      0xffffffffffffffffffffffffffffffffffffffff\n      and\n      0xffffffffffffffffffffffffffffffffffffffff\n      and\n      dup2\n      mstore\n      0x20\n      add\n      swap1\n      dup2\n      mstore\n      0x20\n      add\n      0x00\n      keccak256\n      sload\n        /* \"module1.sol\":747:775  balance[_address] >= _number */\n      lt\n      iszero\n        /* \"module1.sol\":739:800  require(balance[_address] >= _number, \"Insufficient balance\") */\n      tag_64\n      jumpi\n      mload(0x40)\n      0x08c379a000000000000000000000000000000000000000000000000000000000\n      dup2\n      mstore\n      0x04\n      add\n      tag_65\n      swap1\n      tag_54\n      jump\t// in\n    tag_65:\n      mload(0x40)\n      dup1\n      swap2\n      sub\n      swap1\n      revert\n    tag_64:\n        /* \"module1.sol\":827:841  maxTransaction */\n      sload(0x01)\n        /* \"module1.sol\":817:824  _number */\n      dup2\n        /* \"module1.sol\":817:841  _number > maxTransaction */\n      gt\n        /* \"module1.sol\":813:922  if (_number > maxTransaction) {... */\n      iszero\n      tag_66\n      jumpi\n        /* \"module1.sol\":858:910  revert(\"Transaction amount exceeds maximum allowed\") */\n      mload(0x40)\n      0x08c379a000000000000000000000000000000000000000000000000000000000\n      dup2\n      mstore\n      0x04\n      add\n      tag_67\n      swap1\n      tag_68\n      jump\t// in\n    tag_67:\n      mload(0x40)\n      dup1\n      swap2\n      sub\n      swap1\n      revert\n        /* \"module1.sol\":813:922  if (_number > maxTransaction) {... */\n    tag_66:\n        /* \"module1.sol\":949:956  _number */\n      dup1\n        /* \"module1.sol\":934:945  totalSupply */\n      0x00\n      dup1\n        /* \"module1.sol\":934:956  totalSupply -= _number */\n      dup3\n      dup3\n      sload\n      tag_69\n      swap2\n      swap1\n      tag_56\n      jump\t// in\n    tag_69:\n      swap3\n      pop\n      pop\n      dup2\n      swap1\n      sstore\n      pop\n        /* \"module1.sol\":988:995  _number */\n      dup1\n        /* \"module1.sol\":967:974  balance */\n      0x03\n        /* \"module1.sol\":967:984  balance[_address] */\n      0x00\n        /* \"module1.sol\":975:983  _address */\n      dup5\n        /* \"module1.sol\":967:984  balance[_address] */\n      0xffffffffffffffffffffffffffffffffffffffff\n      and\n      0xffffffffffffffffffffffffffffffffffffffff\n      and\n      dup2\n      mstore\n      0x20\n      add\n      swap1\n      dup2\n      mstore\n      0x20\n      add\n      0x00\n      keccak256\n      0x00\n        /* \"module1.sol\":967:995  balance[_address] -= _number */\n      dup3\n      dup3\n      sload\n      tag_70\n      swap2\n      swap1\n      tag_56\n      jump\t// in\n    tag_70:\n      swap3\n      pop\n      pop\n      dup2\n      swap1\n      sstore\n      pop\n        /* \"module1.sol\":1030:1031  0 */\n      0x00\n        /* \"module1.sol\":1015:1026  totalSupply */\n      dup1\n      sload\n        /* \"module1.sol\":1015:1031  totalSupply >= 0 */\n      lt\n      iszero\n        /* \"module1.sol\":1008:1032  assert(totalSupply >= 0) */\n      tag_71\n      jumpi\n      tag_72\n      tag_73\n      jump\t// in\n    tag_72:\n    tag_71:\n        /* \"module1.sol\":671:1040  function withdraw(address _address, uint _number) public {... */\n      pop\n      pop\n      jump\t// out\n        /* \"#utility.yul\":7:84   */\n    tag_74:\n        /* \"#utility.yul\":44:51   */\n      0x00\n        /* \"#utility.yul\":73:78   */\n      dup2\n        /* \"#utility.yul\":62:78   */\n      swap1\n      pop\n        /* \"#utility.yul\":7:84   */\n      swap2\n      swap1\n      pop\n      jump\t// out\n        /* \"#utility.yul\":90:208   */\n    tag_75:\n        /* \"#utility.yul\":177:201   */\n      tag_99\n        /* \"#utility.yul\":195:200   */\n      dup2\n        /* \"#utility.yul\":177:201   */\n      tag_74\n      jump\t// in\n    tag_99:\n        /* \"#utility.yul\":172:175   */\n      dup3\n        /* \"#utility.yul\":165:202   */\n      mstore\n        /* \"#utility.yul\":90:208   */\n      pop\n      pop\n      jump\t// out\n        /* \"#utility.yul\":214:436   */\n    tag_15:\n        /* \"#utility.yul\":307:311   */\n      0x00\n        /* \"#utility.yul\":345:347   */\n      0x20\n        /* \"#utility.yul\":334:343   */\n      dup3\n        /* \"#utility.yul\":330:348   */\n      add\n        /* \"#utility.yul\":322:348   */\n      swap1\n      pop\n        /* \"#utility.yul\":358:429   */\n      tag_101\n        /* \"#utility.yul\":426:427   */\n      0x00\n        /* \"#utility.yul\":415:424   */\n      dup4\n        /* \"#utility.yul\":411:428   */\n      add\n        /* \"#utility.yul\":402:408   */\n      dup5\n        /* \"#utility.yul\":358:429   */\n      tag_75\n      jump\t// in\n    tag_101:\n        /* \"#utility.yul\":214:436   */\n      swap3\n      swap2\n      pop\n      pop\n      jump\t// out\n        /* \"#utility.yul\":523:640   */\n    tag_77:\n        /* \"#utility.yul\":632:633   */\n      0x00\n        /* \"#utility.yul\":629:630   */\n      dup1\n        /* \"#utility.yul\":622:634   */\n      revert\n        /* \"#utility.yul\":769:895   */\n    tag_79:\n        /* \"#utility.yul\":806:813   */\n      0x00\n        /* \"#utility.yul\":846:888   */\n      0xffffffffffffffffffffffffffffffffffffffff\n        /* \"#utility.yul\":839:844   */\n      dup3\n        /* \"#utility.yul\":835:889   */\n      and\n        /* \"#utility.yul\":824:889   */\n      swap1\n      pop\n        /* \"#utility.yul\":769:895   */\n      swap2\n      swap1\n      pop\n      jump\t// out\n        /* \"#utility.yul\":901:997   */\n    tag_80:\n        /* \"#utility.yul\":938:945   */\n      0x00\n        /* \"#utility.yul\":967:991   */\n      tag_107\n        /* \"#utility.yul\":985:990   */\n      dup3\n        /* \"#utility.yul\":967:991   */\n      tag_79\n      jump\t// in\n    tag_107:\n        /* \"#utility.yul\":956:991   */\n      swap1\n      pop\n        /* \"#utility.yul\":901:997   */\n      swap2\n      swap1\n      pop\n      jump\t// out\n        /* \"#utility.yul\":1003:1125   */\n    tag_81:\n        /* \"#utility.yul\":1076:1100   */\n      tag_109\n        /* \"#utility.yul\":1094:1099   */\n      dup2\n        /* \"#utility.yul\":1076:1100   */\n      tag_80\n      jump\t// in\n    tag_109:\n        /* \"#utility.yul\":1069:1074   */\n      dup2\n        /* \"#utility.yul\":1066:1101   */\n      eq\n        /* \"#utility.yul\":1056:1119   */\n      tag_110\n      jumpi\n        /* \"#utility.yul\":1115:1116   */\n      0x00\n        /* \"#utility.yul\":1112:1113   */\n      dup1\n        /* \"#utility.yul\":1105:1117   */\n      revert\n        /* \"#utility.yul\":1056:1119   */\n    tag_110:\n        /* \"#utility.yul\":1003:1125   */\n      pop\n      jump\t// out\n        /* \"#utility.yul\":1131:1270   */\n    tag_82:\n        /* \"#utility.yul\":1177:1182   */\n      0x00\n        /* \"#utility.yul\":1215:1221   */\n      dup2\n        /* \"#utility.yul\":1202:1222   */\n      calldataload\n        /* \"#utility.yul\":1193:1222   */\n      swap1\n      pop\n        /* \"#utility.yul\":1231:1264   */\n      tag_112\n        /* \"#utility.yul\":1258:1263   */\n      dup2\n        /* \"#utility.yul\":1231:1264   */\n      tag_81\n      jump\t// in\n    tag_112:\n        /* \"#utility.yul\":1131:1270   */\n      swap3\n      swap2\n      pop\n      pop\n      jump\t// out\n        /* \"#utility.yul\":1276:1398   */\n    tag_83:\n        /* \"#utility.yul\":1349:1373   */\n      tag_114\n        /* \"#utility.yul\":1367:1372   */\n      dup2\n        /* \"#utility.yul\":1349:1373   */\n      tag_74\n      jump\t// in\n    tag_114:\n        /* \"#utility.yul\":1342:1347   */\n      dup2\n        /* \"#utility.yul\":1339:1374   */\n      eq\n        /* \"#utility.yul\":1329:1392   */\n      tag_115\n      jumpi\n        /* \"#utility.yul\":1388:1389   */\n      0x00\n        /* \"#utility.yul\":1385:1386   */\n      dup1\n        /* \"#utility.yul\":1378:1390   */\n      revert\n        /* \"#utility.yul\":1329:1392   */\n    tag_115:\n        /* \"#utility.yul\":1276:1398   */\n      pop\n      jump\t// out\n        /* \"#utility.yul\":1404:1543   */\n    tag_84:\n        /* \"#utility.yul\":1450:1455   */\n      0x00\n        /* \"#utility.yul\":1488:1494   */\n      dup2\n        /* \"#utility.yul\":1475:1495   */\n      calldataload\n        /* \"#utility.yul\":1466:1495   */\n      swap1\n      pop\n        /* \"#utility.yul\":1504:1537   */\n      tag_117\n        /* \"#utility.yul\":1531:1536   */\n      dup2\n        /* \"#utility.yul\":1504:1537   */\n      tag_83\n      jump\t// in\n    tag_117:\n        /* \"#utility.yul\":1404:1543   */\n      swap3\n      swap2\n      pop\n      pop\n      jump\t// out\n        /* \"#utility.yul\":1549:2023   */\n    tag_18:\n        /* \"#utility.yul\":1617:1623   */\n      0x00\n        /* \"#utility.yul\":1625:1631   */\n      dup1\n        /* \"#utility.yul\":1674:1676   */\n      0x40\n        /* \"#utility.yul\":1662:1671   */\n      dup4\n        /* \"#utility.yul\":1653:1660   */\n      dup6\n        /* \"#utility.yul\":1649:1672   */\n      sub\n        /* \"#utility.yul\":1645:1677   */\n      slt\n        /* \"#utility.yul\":1642:1761   */\n      iszero\n      tag_119\n      jumpi\n        /* \"#utility.yul\":1680:1759   */\n      tag_120\n      tag_77\n      jump\t// in\n    tag_120:\n        /* \"#utility.yul\":1642:1761   */\n    tag_119:\n        /* \"#utility.yul\":1800:1801   */\n      0x00\n        /* \"#utility.yul\":1825:1878   */\n      tag_121\n        /* \"#utility.yul\":1870:1877   */\n      dup6\n        /* \"#utility.yul\":1861:1867   */\n      dup3\n        /* \"#utility.yul\":1850:1859   */\n      dup7\n        /* \"#utility.yul\":1846:1868   */\n      add\n        /* \"#utility.yul\":1825:1878   */\n      tag_82\n      jump\t// in\n    tag_121:\n        /* \"#utility.yul\":1815:1878   */\n      swap3\n      pop\n        /* \"#utility.yul\":1771:1888   */\n      pop\n        /* \"#utility.yul\":1927:1929   */\n      0x20\n        /* \"#utility.yul\":1953:2006   */\n      tag_122\n        /* \"#utility.yul\":1998:2005   */\n      dup6\n        /* \"#utility.yul\":1989:1995   */\n      dup3\n        /* \"#utility.yul\":1978:1987   */\n      dup7\n        /* \"#utility.yul\":1974:1996   */\n      add\n        /* \"#utility.yul\":1953:2006   */\n      tag_84\n      jump\t// in\n    tag_122:\n        /* \"#utility.yul\":1943:2006   */\n      swap2\n      pop\n        /* \"#utility.yul\":1898:2016   */\n      pop\n        /* \"#utility.yul\":1549:2023   */\n      swap3\n      pop\n      swap3\n      swap1\n      pop\n      jump\t// out\n        /* \"#utility.yul\":2029:2147   */\n    tag_85:\n        /* \"#utility.yul\":2116:2140   */\n      tag_124\n        /* \"#utility.yul\":2134:2139   */\n      dup2\n        /* \"#utility.yul\":2116:2140   */\n      tag_80\n      jump\t// in\n    tag_124:\n        /* \"#utility.yul\":2111:2114   */\n      dup3\n        /* \"#utility.yul\":2104:2141   */\n      mstore\n        /* \"#utility.yul\":2029:2147   */\n      pop\n      pop\n      jump\t// out\n        /* \"#utility.yul\":2153:2375   */\n    tag_23:\n        /* \"#utility.yul\":2246:2250   */\n      0x00\n        /* \"#utility.yul\":2284:2286   */\n      0x20\n        /* \"#utility.yul\":2273:2282   */\n      dup3\n        /* \"#utility.yul\":2269:2287   */\n      add\n        /* \"#utility.yul\":2261:2287   */\n      swap1\n      pop\n        /* \"#utility.yul\":2297:2368   */\n      tag_126\n        /* \"#utility.yul\":2365:2366   */\n      0x00\n        /* \"#utility.yul\":2354:2363   */\n      dup4\n        /* \"#utility.yul\":2350:2367   */\n      add\n        /* \"#utility.yul\":2341:2347   */\n      dup5\n        /* \"#utility.yul\":2297:2368   */\n      tag_85\n      jump\t// in\n    tag_126:\n        /* \"#utility.yul\":2153:2375   */\n      swap3\n      swap2\n      pop\n      pop\n      jump\t// out\n        /* \"#utility.yul\":2381:2710   */\n    tag_32:\n        /* \"#utility.yul\":2440:2446   */\n      0x00\n        /* \"#utility.yul\":2489:2491   */\n      0x20\n        /* \"#utility.yul\":2477:2486   */\n      dup3\n        /* \"#utility.yul\":2468:2475   */\n      dup5\n        /* \"#utility.yul\":2464:2487   */\n      sub\n        /* \"#utility.yul\":2460:2492   */\n      slt\n        /* \"#utility.yul\":2457:2576   */\n      iszero\n      tag_128\n      jumpi\n        /* \"#utility.yul\":2495:2574   */\n      tag_129\n      tag_77\n      jump\t// in\n    tag_129:\n        /* \"#utility.yul\":2457:2576   */\n    tag_128:\n        /* \"#utility.yul\":2615:2616   */\n      0x00\n        /* \"#utility.yul\":2640:2693   */\n      tag_130\n        /* \"#utility.yul\":2685:2692   */\n      dup5\n        /* \"#utility.yul\":2676:2682   */\n      dup3\n        /* \"#utility.yul\":2665:2674   */\n      dup6\n        /* \"#utility.yul\":2661:2683   */\n      add\n        /* \"#utility.yul\":2640:2693   */\n      tag_84\n      jump\t// in\n    tag_130:\n        /* \"#utility.yul\":2630:2693   */\n      swap2\n      pop\n        /* \"#utility.yul\":2586:2703   */\n      pop\n        /* \"#utility.yul\":2381:2710   */\n      swap3\n      swap2\n      pop\n      pop\n      jump\t// out\n        /* \"#utility.yul\":2716:3045   */\n    tag_36:\n        /* \"#utility.yul\":2775:2781   */\n      0x00\n        /* \"#utility.yul\":2824:2826   */\n      0x20\n        /* \"#utility.yul\":2812:2821   */\n      dup3\n        /* \"#utility.yul\":2803:2810   */\n      dup5\n        /* \"#utility.yul\":2799:2822   */\n      sub\n        /* \"#utility.yul\":2795:2827   */\n      slt\n        /* \"#utility.yul\":2792:2911   */\n      iszero\n      tag_132\n      jumpi\n        /* \"#utility.yul\":2830:2909   */\n      tag_133\n      tag_77\n      jump\t// in\n    tag_133:\n        /* \"#utility.yul\":2792:2911   */\n    tag_132:\n        /* \"#utility.yul\":2950:2951   */\n      0x00\n        /* \"#utility.yul\":2975:3028   */\n      tag_134\n        /* \"#utility.yul\":3020:3027   */\n      dup5\n        /* \"#utility.yul\":3011:3017   */\n      dup3\n        /* \"#utility.yul\":3000:3009   */\n      dup6\n        /* \"#utility.yul\":2996:3018   */\n      add\n        /* \"#utility.yul\":2975:3028   */\n      tag_82\n      jump\t// in\n    tag_134:\n        /* \"#utility.yul\":2965:3028   */\n      swap2\n      pop\n        /* \"#utility.yul\":2921:3038   */\n      pop\n        /* \"#utility.yul\":2716:3045   */\n      swap3\n      swap2\n      pop\n      pop\n      jump\t// out\n        /* \"#utility.yul\":3051:3220   */\n    tag_86:\n        /* \"#utility.yul\":3135:3146   */\n      0x00\n        /* \"#utility.yul\":3169:3175   */\n      dup3\n        /* \"#utility.yul\":3164:3167   */\n      dup3\n        /* \"#utility.yul\":3157:3176   */\n      mstore\n        /* \"#utility.yul\":3209:3213   */\n      0x20\n        /* \"#utility.yul\":3204:3207   */\n      dup3\n        /* \"#utility.yul\":3200:3214   */\n      add\n        /* \"#utility.yul\":3185:3214   */\n      swap1\n      pop\n        /* \"#utility.yul\":3051:3220   */\n      swap3\n      swap2\n      pop\n      pop\n      jump\t// out\n        /* \"#utility.yul\":3226:3405   */\n    tag_87:\n        /* \"#utility.yul\":3366:3397   */\n      0x416d6f756e74206d7573742062652067726561746572207468616e2030000000\n        /* \"#utility.yul\":3362:3363   */\n      0x00\n        /* \"#utility.yul\":3354:3360   */\n      dup3\n        /* \"#utility.yul\":3350:3364   */\n      add\n        /* \"#utility.yul\":3343:3398   */\n      mstore\n        /* \"#utility.yul\":3226:3405   */\n      pop\n      jump\t// out\n        /* \"#utility.yul\":3411:3777   */\n    tag_88:\n        /* \"#utility.yul\":3553:3556   */\n      0x00\n        /* \"#utility.yul\":3574:3641   */\n      tag_138\n        /* \"#utility.yul\":3638:3640   */\n      0x1d\n        /* \"#utility.yul\":3633:3636   */\n      dup4\n        /* \"#utility.yul\":3574:3641   */\n      tag_86\n      jump\t// in\n    tag_138:\n        /* \"#utility.yul\":3567:3641   */\n      swap2\n      pop\n        /* \"#utility.yul\":3650:3743   */\n      tag_139\n        /* \"#utility.yul\":3739:3742   */\n      dup3\n        /* \"#utility.yul\":3650:3743   */\n      tag_87\n      jump\t// in\n    tag_139:\n        /* \"#utility.yul\":3768:3770   */\n      0x20\n        /* \"#utility.yul\":3763:3766   */\n      dup3\n        /* \"#utility.yul\":3759:3771   */\n      add\n        /* \"#utility.yul\":3752:3771   */\n      swap1\n      pop\n        /* \"#utility.yul\":3411:3777   */\n      swap2\n      swap1\n      pop\n      jump\t// out\n        /* \"#utility.yul\":3783:4202   */\n    tag_45:\n        /* \"#utility.yul\":3949:3953   */\n      0x00\n        /* \"#utility.yul\":3987:3989   */\n      0x20\n        /* \"#utility.yul\":3976:3985   */\n      dup3\n        /* \"#utility.yul\":3972:3990   */\n      add\n        /* \"#utility.yul\":3964:3990   */\n      swap1\n      pop\n        /* \"#utility.yul\":4036:4045   */\n      dup2\n        /* \"#utility.yul\":4030:4034   */\n      dup2\n        /* \"#utility.yul\":4026:4046   */\n      sub\n        /* \"#utility.yul\":4022:4023   */\n      0x00\n        /* \"#utility.yul\":4011:4020   */\n      dup4\n        /* \"#utility.yul\":4007:4024   */\n      add\n        /* \"#utility.yul\":4000:4047   */\n      mstore\n        /* \"#utility.yul\":4064:4195   */\n      tag_141\n        /* \"#utility.yul\":4190:4194   */\n      dup2\n        /* \"#utility.yul\":4064:4195   */\n      tag_88\n      jump\t// in\n    tag_141:\n        /* \"#utility.yul\":4056:4195   */\n      swap1\n      pop\n        /* \"#utility.yul\":3783:4202   */\n      swap2\n      swap1\n      pop\n      jump\t// out\n        /* \"#utility.yul\":4208:4388   */\n    tag_89:\n        /* \"#utility.yul\":4256:4333   */\n      0x4e487b7100000000000000000000000000000000000000000000000000000000\n        /* \"#utility.yul\":4253:4254   */\n      0x00\n        /* \"#utility.yul\":4246:4334   */\n      mstore\n        /* \"#utility.yul\":4353:4357   */\n      0x11\n        /* \"#utility.yul\":4350:4351   */\n      0x04\n        /* \"#utility.yul\":4343:4358   */\n      mstore\n        /* \"#utility.yul\":4377:4381   */\n      0x24\n        /* \"#utility.yul\":4374:4375   */\n      0x00\n        /* \"#utility.yul\":4367:4382   */\n      revert\n        /* \"#utility.yul\":4394:4585   */\n    tag_47:\n        /* \"#utility.yul\":4434:4437   */\n      0x00\n        /* \"#utility.yul\":4453:4473   */\n      tag_144\n        /* \"#utility.yul\":4471:4472   */\n      dup3\n        /* \"#utility.yul\":4453:4473   */\n      tag_74\n      jump\t// in\n    tag_144:\n        /* \"#utility.yul\":4448:4473   */\n      swap2\n      pop\n        /* \"#utility.yul\":4487:4507   */\n      tag_145\n        /* \"#utility.yul\":4505:4506   */\n      dup4\n        /* \"#utility.yul\":4487:4507   */\n      tag_74\n      jump\t// in\n    tag_145:\n        /* \"#utility.yul\":4482:4507   */\n      swap3\n      pop\n        /* \"#utility.yul\":4530:4531   */\n      dup3\n        /* \"#utility.yul\":4527:4528   */\n      dup3\n        /* \"#utility.yul\":4523:4532   */\n      add\n        /* \"#utility.yul\":4516:4532   */\n      swap1\n      pop\n        /* \"#utility.yul\":4551:4554   */\n      dup1\n        /* \"#utility.yul\":4548:4549   */\n      dup3\n        /* \"#utility.yul\":4545:4555   */\n      gt\n        /* \"#utility.yul\":4542:4578   */\n      iszero\n      tag_146\n      jumpi\n        /* \"#utility.yul\":4558:4576   */\n      tag_147\n      tag_89\n      jump\t// in\n    tag_147:\n        /* \"#utility.yul\":4542:4578   */\n    tag_146:\n        /* \"#utility.yul\":4394:4585   */\n      swap3\n      swap2\n      pop\n      pop\n      jump\t// out\n        /* \"#utility.yul\":4591:4761   */\n    tag_90:\n        /* \"#utility.yul\":4731:4753   */\n      0x496e73756666696369656e742062616c616e6365000000000000000000000000\n        /* \"#utility.yul\":4727:4728   */\n      0x00\n        /* \"#utility.yul\":4719:4725   */\n      dup3\n        /* \"#utility.yul\":4715:4729   */\n      add\n        /* \"#utility.yul\":4708:4754   */\n      mstore\n        /* \"#utility.yul\":4591:4761   */\n      pop\n      jump\t// out\n        /* \"#utility.yul\":4767:5133   */\n    tag_91:\n        /* \"#utility.yul\":4909:4912   */\n      0x00\n        /* \"#utility.yul\":4930:4997   */\n      tag_150\n        /* \"#utility.yul\":4994:4996   */\n      0x14\n        /* \"#utility.yul\":4989:4992   */\n      dup4\n        /* \"#utility.yul\":4930:4997   */\n      tag_86\n      jump\t// in\n    tag_150:\n        /* \"#utility.yul\":4923:4997   */\n      swap2\n      pop\n        /* \"#utility.yul\":5006:5099   */\n      tag_151\n        /* \"#utility.yul\":5095:5098   */\n      dup3\n        /* \"#utility.yul\":5006:5099   */\n      tag_90\n      jump\t// in\n    tag_151:\n        /* \"#utility.yul\":5124:5126   */\n      0x20\n        /* \"#utility.yul\":5119:5122   */\n      dup3\n        /* \"#utility.yul\":5115:5127   */\n      add\n        /* \"#utility.yul\":5108:5127   */\n      swap1\n      pop\n        /* \"#utility.yul\":4767:5133   */\n      swap2\n      swap1\n      pop\n      jump\t// out\n        /* \"#utility.yul\":5139:5558   */\n    tag_54:\n        /* \"#utility.yul\":5305:5309   */\n      0x00\n        /* \"#utility.yul\":5343:5345   */\n      0x20\n        /* \"#utility.yul\":5332:5341   */\n      dup3\n        /* \"#utility.yul\":5328:5346   */\n      add\n        /* \"#utility.yul\":5320:5346   */\n      swap1\n      pop\n        /* \"#utility.yul\":5392:5401   */\n      dup2\n        /* \"#utility.yul\":5386:5390   */\n      dup2\n        /* \"#utility.yul\":5382:5402   */\n      sub\n        /* \"#utility.yul\":5378:5379   */\n      0x00\n        /* \"#utility.yul\":5367:5376   */\n      dup4\n        /* \"#utility.yul\":5363:5380   */\n      add\n        /* \"#utility.yul\":5356:5403   */\n      mstore\n        /* \"#utility.yul\":5420:5551   */\n      tag_153\n        /* \"#utility.yul\":5546:5550   */\n      dup2\n        /* \"#utility.yul\":5420:5551   */\n      tag_91\n      jump\t// in\n    tag_153:\n        /* \"#utility.yul\":5412:5551   */\n      swap1\n      pop\n        /* \"#utility.yul\":5139:5558   */\n      swap2\n      swap1\n      pop\n      jump\t// out\n        /* \"#utility.yul\":5564:5758   */\n    tag_56:\n        /* \"#utility.yul\":5604:5608   */\n      0x00\n        /* \"#utility.yul\":5624:5644   */\n      tag_155\n        /* \"#utility.yul\":5642:5643   */\n      dup3\n        /* \"#utility.yul\":5624:5644   */\n      tag_74\n      jump\t// in\n    tag_155:\n        /* \"#utility.yul\":5619:5644   */\n      swap2\n      pop\n        /* \"#utility.yul\":5658:5678   */\n      tag_156\n        /* \"#utility.yul\":5676:5677   */\n      dup4\n        /* \"#utility.yul\":5658:5678   */\n      tag_74\n      jump\t// in\n    tag_156:\n        /* \"#utility.yul\":5653:5678   */\n      swap3\n      pop\n        /* \"#utility.yul\":5702:5703   */\n      dup3\n        /* \"#utility.yul\":5699:5700   */\n      dup3\n        /* \"#utility.yul\":5695:5704   */\n      sub\n        /* \"#utility.yul\":5687:5704   */\n      swap1\n      pop\n        /* \"#utility.yul\":5726:5727   */\n      dup2\n        /* \"#utility.yul\":5720:5724   */\n      dup2\n        /* \"#utility.yul\":5717:5728   */\n      gt\n        /* \"#utility.yul\":5714:5751   */\n      iszero\n      tag_157\n      jumpi\n        /* \"#utility.yul\":5731:5749   */\n      tag_158\n      tag_89\n      jump\t// in\n    tag_158:\n        /* \"#utility.yul\":5714:5751   */\n    tag_157:\n        /* \"#utility.yul\":5564:5758   */\n      swap3\n      swap2\n      pop\n      pop\n      jump\t// out\n        /* \"#utility.yul\":5764:5993   */\n    tag_92:\n        /* \"#utility.yul\":5904:5938   */\n      0x4f6e6c7920636f6e7472616374206f776e65722063616e2063616c6c20746869\n        /* \"#utility.yul\":5900:5901   */\n      0x00\n        /* \"#utility.yul\":5892:5898   */\n      dup3\n        /* \"#utility.yul\":5888:5902   */\n      add\n        /* \"#utility.yul\":5881:5939   */\n      mstore\n        /* \"#utility.yul\":5973:5985   */\n      0x732066756e6374696f6e00000000000000000000000000000000000000000000\n        /* \"#utility.yul\":5968:5970   */\n      0x20\n        /* \"#utility.yul\":5960:5966   */\n      dup3\n        /* \"#utility.yul\":5956:5971   */\n      add\n        /* \"#utility.yul\":5949:5986   */\n      mstore\n        /* \"#utility.yul\":5764:5993   */\n      pop\n      jump\t// out\n        /* \"#utility.yul\":5999:6365   */\n    tag_93:\n        /* \"#utility.yul\":6141:6144   */\n      0x00\n        /* \"#utility.yul\":6162:6229   */\n      tag_161\n        /* \"#utility.yul\":6226:6228   */\n      0x2a\n        /* \"#utility.yul\":6221:6224   */\n      dup4\n        /* \"#utility.yul\":6162:6229   */\n      tag_86\n      jump\t// in\n    tag_161:\n        /* \"#utility.yul\":6155:6229   */\n      swap2\n      pop\n        /* \"#utility.yul\":6238:6331   */\n      tag_162\n        /* \"#utility.yul\":6327:6330   */\n      dup3\n        /* \"#utility.yul\":6238:6331   */\n      tag_92\n      jump\t// in\n    tag_162:\n        /* \"#utility.yul\":6356:6358   */\n      0x40\n        /* \"#utility.yul\":6351:6354   */\n      dup3\n        /* \"#utility.yul\":6347:6359   */\n      add\n        /* \"#utility.yul\":6340:6359   */\n      swap1\n      pop\n        /* \"#utility.yul\":5999:6365   */\n      swap2\n      swap1\n      pop\n      jump\t// out\n        /* \"#utility.yul\":6371:6790   */\n    tag_61:\n        /* \"#utility.yul\":6537:6541   */\n      0x00\n        /* \"#utility.yul\":6575:6577   */\n      0x20\n        /* \"#utility.yul\":6564:6573   */\n      dup3\n        /* \"#utility.yul\":6560:6578   */\n      add\n        /* \"#utility.yul\":6552:6578   */\n      swap1\n      pop\n        /* \"#utility.yul\":6624:6633   */\n      dup2\n        /* \"#utility.yul\":6618:6622   */\n      dup2\n        /* \"#utility.yul\":6614:6634   */\n      sub\n        /* \"#utility.yul\":6610:6611   */\n      0x00\n        /* \"#utility.yul\":6599:6608   */\n      dup4\n        /* \"#utility.yul\":6595:6612   */\n      add\n        /* \"#utility.yul\":6588:6635   */\n      mstore\n        /* \"#utility.yul\":6652:6783   */\n      tag_164\n        /* \"#utility.yul\":6778:6782   */\n      dup2\n        /* \"#utility.yul\":6652:6783   */\n      tag_93\n      jump\t// in\n    tag_164:\n        /* \"#utility.yul\":6644:6783   */\n      swap1\n      pop\n        /* \"#utility.yul\":6371:6790   */\n      swap2\n      swap1\n      pop\n      jump\t// out\n        /* \"#utility.yul\":6796:7025   */\n    tag_94:\n        /* \"#utility.yul\":6936:6970   */\n      0x5472616e73616374696f6e20616d6f756e742065786365656473206d6178696d\n        /* \"#utility.yul\":6932:6933   */\n      0x00\n        /* \"#utility.yul\":6924:6930   */\n      dup3\n        /* \"#utility.yul\":6920:6934   */\n      add\n        /* \"#utility.yul\":6913:6971   */\n      mstore\n        /* \"#utility.yul\":7005:7017   */\n      0x756d20616c6c6f77656400000000000000000000000000000000000000000000\n        /* \"#utility.yul\":7000:7002   */\n      0x20\n        /* \"#utility.yul\":6992:6998   */\n      dup3\n        /* \"#utility.yul\":6988:7003   */\n      add\n        /* \"#utility.yul\":6981:7018   */\n      mstore\n        /* \"#utility.yul\":6796:7025   */\n      pop\n      jump\t// out\n        /* \"#utility.yul\":7031:7397   */\n    tag_95:\n        /* \"#utility.yul\":7173:7176   */\n      0x00\n        /* \"#utility.yul\":7194:7261   */\n      tag_167\n        /* \"#utility.yul\":7258:7260   */\n      0x2a\n        /* \"#utility.yul\":7253:7256   */\n      dup4\n        /* \"#utility.yul\":7194:7261   */\n      tag_86\n      jump\t// in\n    tag_167:\n        /* \"#utility.yul\":7187:7261   */\n      swap2\n      pop\n        /* \"#utility.yul\":7270:7363   */\n      tag_168\n        /* \"#utility.yul\":7359:7362   */\n      dup3\n        /* \"#utility.yul\":7270:7363   */\n      tag_94\n      jump\t// in\n    tag_168:\n        /* \"#utility.yul\":7388:7390   */\n      0x40\n        /* \"#utility.yul\":7383:7386   */\n      dup3\n        /* \"#utility.yul\":7379:7391   */\n      add\n        /* \"#utility.yul\":7372:7391   */\n      swap1\n      pop\n        /* \"#utility.yul\":7031:7397   */\n      swap2\n      swap1\n      pop\n      jump\t// out\n        /* \"#utility.yul\":7403:7822   */\n    tag_68:\n        /* \"#utility.yul\":7569:7573   */\n      0x00\n        /* \"#utility.yul\":7607:7609   */\n      0x20\n        /* \"#utility.yul\":7596:7605   */\n      dup3\n        /* \"#utility.yul\":7592:7610   */\n      add\n        /* \"#utility.yul\":7584:7610   */\n      swap1\n      pop\n        /* \"#utility.yul\":7656:7665   */\n      dup2\n        /* \"#utility.yul\":7650:7654   */\n      dup2\n        /* \"#utility.yul\":7646:7666   */\n      sub\n        /* \"#utility.yul\":7642:7643   */\n      0x00\n        /* \"#utility.yul\":7631:7640   */\n      dup4\n        /* \"#utility.yul\":7627:7644   */\n      add\n        /* \"#utility.yul\":7620:7667   */\n      mstore\n        /* \"#utility.yul\":7684:7815   */\n      tag_170\n        /* \"#utility.yul\":7810:7814   */\n      dup2\n        /* \"#utility.yul\":7684:7815   */\n      tag_95\n      jump\t// in\n    tag_170:\n        /* \"#utility.yul\":7676:7815   */\n      swap1\n      pop\n        /* \"#utility.yul\":7403:7822   */\n      swap2\n      swap1\n      pop\n      jump\t// out\n        /* \"#utility.yul\":7828:8008   */\n    tag_73:\n        /* \"#utility.yul\":7876:7953   */\n      0x4e487b7100000000000000000000000000000000000000000000000000000000\n        /* \"#utility.yul\":7873:7874   */\n      0x00\n        /* \"#utility.yul\":7866:7954   */\n      mstore\n        /* \"#utility.yul\":7973:7977   */\n      0x01\n        /* \"#utility.yul\":7970:7971   */\n      0x04\n        /* \"#utility.yul\":7963:7978   */\n      mstore\n        /* \"#utility.yul\":7997:8001   */\n      0x24\n        /* \"#utility.yul\":7994:7995   */\n      0x00\n        /* \"#utility.yul\":7987:8002   */\n      revert\n\n    auxdata: 0xa2646970667358221220b9a24fb7e412228e497ba37ffb78de421b123958e33f0cccfb03c50e97e25b2664736f6c634300081a0033\n}\n",
				"bytecode": {
					"linkReferences": {},
					"object": "60806040525f80556103206001553480156017575f80fd5b503360025f6101000a81548173ffffffffffffffffffffffffffffffffffffffff021916908373ffffffffffffffffffffffffffffffffffffffff160217905550610a2a806100655f395ff3fe608060405234801561000f575f80fd5b5060043610610086575f3560e01c8063c3f70b5211610059578063c3f70b52146100fe578063cd73ab021461011c578063e3d670d714610138578063f3fef3a31461016857610086565b806318160ddd1461008a57806347e7ef24146100a85780638da5cb5b146100c4578063a9059cbb146100e2575b5f80fd5b610092610184565b60405161009f91906105db565b60405180910390f35b6100c260048036038101906100bd919061067c565b610189565b005b6100cc610239565b6040516100d991906106c9565b60405180910390f35b6100fc60048036038101906100f7919061067c565b61025e565b005b6101066103ca565b60405161011391906105db565b60405180910390f35b610136600480360381019061013191906106e2565b6103d0565b005b610152600480360381019061014d919061070d565b610469565b60405161015f91906105db565b60405180910390f35b610182600480360381019061017d919061067c565b61047e565b005b5f5481565b5f81116101cb576040517f08c379a00000000000000000000000000000000000000000000000000000000081526004016101c290610792565b60405180910390fd5b805f808282546101db91906107dd565b925050819055508060035f8473ffffffffffffffffffffffffffffffffffffffff1673ffffffffffffffffffffffffffffffffffffffff1681526020019081526020015f205f82825461022e91906107dd565b925050819055505050565b60025f9054906101000a900473ffffffffffffffffffffffffffffffffffffffff1681565b5f81116102a0576040517f08c379a000000000000000000000000000000000000000000000000000000000815260040161029790610792565b60405180910390fd5b8060035f3373ffffffffffffffffffffffffffffffffffffffff1673ffffffffffffffffffffffffffffffffffffffff1681526020019081526020015f20541015610320576040517f08c379a00000000000000000000000000000000000000000000000000000000081526004016103179061085a565b60405180910390fd5b8060035f3373ffffffffffffffffffffffffffffffffffffffff1673ffffffffffffffffffffffffffffffffffffffff1681526020019081526020015f205f82825461036c9190610878565b925050819055508060035f8473ffffffffffffffffffffffffffffffffffffffff1673ffffffffffffffffffffffffffffffffffffffff1681526020019081526020015f205f8282546103bf91906107dd565b925050819055505050565b60015481565b60025f9054906101000a900473ffffffffffffffffffffffffffffffffffffffff1673ffffffffffffffffffffffffffffffffffffffff163373ffffffffffffffffffffffffffffffffffffffff161461045f576040517f08c379a00000000000000000000000000000000000000000000000000000000081526004016104569061091b565b60405180910390fd5b8060018190555050565b6003602052805f5260405f205f915090505481565b8060035f8473ffffffffffffffffffffffffffffffffffffffff1673ffffffffffffffffffffffffffffffffffffffff1681526020019081526020015f205410156104fe576040517f08c379a00000000000000000000000000000000000000000000000000000000081526004016104f59061085a565b60405180910390fd5b600154811115610543576040517f08c379a000000000000000000000000000000000000000000000000000000000815260040161053a906109a9565b60405180910390fd5b805f808282546105539190610878565b925050819055508060035f8473ffffffffffffffffffffffffffffffffffffffff1673ffffffffffffffffffffffffffffffffffffffff1681526020019081526020015f205f8282546105a69190610878565b925050819055505f805410156105bf576105be6109c7565b5b5050565b5f819050919050565b6105d5816105c3565b82525050565b5f6020820190506105ee5f8301846105cc565b92915050565b5f80fd5b5f73ffffffffffffffffffffffffffffffffffffffff82169050919050565b5f610621826105f8565b9050919050565b61063181610617565b811461063b575f80fd5b50565b5f8135905061064c81610628565b92915050565b61065b816105c3565b8114610665575f80fd5b50565b5f8135905061067681610652565b92915050565b5f8060408385031215610692576106916105f4565b5b5f61069f8582860161063e565b92505060206106b085828601610668565b9150509250929050565b6106c381610617565b82525050565b5f6020820190506106dc5f8301846106ba565b92915050565b5f602082840312156106f7576106f66105f4565b5b5f61070484828501610668565b91505092915050565b5f60208284031215610722576107216105f4565b5b5f61072f8482850161063e565b91505092915050565b5f82825260208201905092915050565b7f416d6f756e74206d7573742062652067726561746572207468616e20300000005f82015250565b5f61077c601d83610738565b915061078782610748565b602082019050919050565b5f6020820190508181035f8301526107a981610770565b9050919050565b7f4e487b71000000000000000000000000000000000000000000000000000000005f52601160045260245ffd5b5f6107e7826105c3565b91506107f2836105c3565b925082820190508082111561080a576108096107b0565b5b92915050565b7f496e73756666696369656e742062616c616e63650000000000000000000000005f82015250565b5f610844601483610738565b915061084f82610810565b602082019050919050565b5f6020820190508181035f83015261087181610838565b9050919050565b5f610882826105c3565b915061088d836105c3565b92508282039050818111156108a5576108a46107b0565b5b92915050565b7f4f6e6c7920636f6e7472616374206f776e65722063616e2063616c6c207468695f8201527f732066756e6374696f6e00000000000000000000000000000000000000000000602082015250565b5f610905602a83610738565b9150610910826108ab565b604082019050919050565b5f6020820190508181035f830152610932816108f9565b9050919050565b7f5472616e73616374696f6e20616d6f756e742065786365656473206d6178696d5f8201527f756d20616c6c6f77656400000000000000000000000000000000000000000000602082015250565b5f610993602a83610738565b915061099e82610939565b604082019050919050565b5f6020820190508181035f8301526109c081610987565b9050919050565b7f4e487b71000000000000000000000000000000000000000000000000000000005f52600160045260245ffdfea2646970667358221220b9a24fb7e412228e497ba37ffb78de421b123958e33f0cccfb03c50e97e25b2664736f6c634300081a0033",
					"opcodes": "PUSH1 0x80 PUSH1 0x40 MSTORE PUSH0 DUP1 SSTORE PUSH2 0x320 PUSH1 0x1 SSTORE CALLVALUE DUP1 ISZERO PUSH1 0x17 JUMPI PUSH0 DUP1 REVERT JUMPDEST POP CALLER PUSH1 0x2 PUSH0 PUSH2 0x100 EXP DUP2 SLOAD DUP2 PUSH20 0xFFFFFFFFFFFFFFFFFFFFFFFFFFFFFFFFFFFFFFFF MUL NOT AND SWAP1 DUP4 PUSH20 0xFFFFFFFFFFFFFFFFFFFFFFFFFFFFFFFFFFFFFFFF AND MUL OR SWAP1 SSTORE POP PUSH2 0xA2A DUP1 PUSH2 0x65 PUSH0 CODECOPY PUSH0 RETURN INVALID PUSH1 0x80 PUSH1 0x40 MSTORE CALLVALUE DUP1 ISZERO PUSH2 0xF JUMPI PUSH0 DUP1 REVERT JUMPDEST POP PUSH1 0x4 CALLDATASIZE LT PUSH2 0x86 JUMPI PUSH0 CALLDATALOAD PUSH1 0xE0 SHR DUP1 PUSH4 0xC3F70B52 GT PUSH2 0x59 JUMPI DUP1 PUSH4 0xC3F70B52 EQ PUSH2 0xFE JUMPI DUP1 PUSH4 0xCD73AB02 EQ PUSH2 0x11C JUMPI DUP1 PUSH4 0xE3D670D7 EQ PUSH2 0x138 JUMPI DUP1 PUSH4 0xF3FEF3A3 EQ PUSH2 0x168 JUMPI PUSH2 0x86 JUMP JUMPDEST DUP1 PUSH4 0x18160DDD EQ PUSH2 0x8A JUMPI DUP1 PUSH4 0x47E7EF24 EQ PUSH2 0xA8 JUMPI DUP1 PUSH4 0x8DA5CB5B EQ PUSH2 0xC4 JUMPI DUP1 PUSH4 0xA9059CBB EQ PUSH2 0xE2 JUMPI JUMPDEST PUSH0 DUP1 REVERT JUMPDEST PUSH2 0x92 PUSH2 0x184 JUMP JUMPDEST PUSH1 0x40 MLOAD PUSH2 0x9F SWAP2 SWAP1 PUSH2 0x5DB JUMP JUMPDEST PUSH1 0x40 MLOAD DUP1 SWAP2 SUB SWAP1 RETURN JUMPDEST PUSH2 0xC2 PUSH1 0x4 DUP1 CALLDATASIZE SUB DUP2 ADD SWAP1 PUSH2 0xBD SWAP2 SWAP1 PUSH2 0x67C JUMP JUMPDEST PUSH2 0x189 JUMP JUMPDEST STOP JUMPDEST PUSH2 0xCC PUSH2 0x239 JUMP JUMPDEST PUSH1 0x40 MLOAD PUSH2 0xD9 SWAP2 SWAP1 PUSH2 0x6C9 JUMP JUMPDEST PUSH1 0x40 MLOAD DUP1 SWAP2 SUB SWAP1 RETURN JUMPDEST PUSH2 0xFC PUSH1 0x4 DUP1 CALLDATASIZE SUB DUP2 ADD SWAP1 PUSH2 0xF7 SWAP2 SWAP1 PUSH2 0x67C JUMP JUMPDEST PUSH2 0x25E JUMP JUMPDEST STOP JUMPDEST PUSH2 0x106 PUSH2 0x3CA JUMP JUMPDEST PUSH1 0x40 MLOAD PUSH2 0x113 SWAP2 SWAP1 PUSH2 0x5DB JUMP JUMPDEST PUSH1 0x40 MLOAD DUP1 SWAP2 SUB SWAP1 RETURN JUMPDEST PUSH2 0x136 PUSH1 0x4 DUP1 CALLDATASIZE SUB DUP2 ADD SWAP1 PUSH2 0x131 SWAP2 SWAP1 PUSH2 0x6E2 JUMP JUMPDEST PUSH2 0x3D0 JUMP JUMPDEST STOP JUMPDEST PUSH2 0x152 PUSH1 0x4 DUP1 CALLDATASIZE SUB DUP2 ADD SWAP1 PUSH2 0x14D SWAP2 SWAP1 PUSH2 0x70D JUMP JUMPDEST PUSH2 0x469 JUMP JUMPDEST PUSH1 0x40 MLOAD PUSH2 0x15F SWAP2 SWAP1 PUSH2 0x5DB JUMP JUMPDEST PUSH1 0x40 MLOAD DUP1 SWAP2 SUB SWAP1 RETURN JUMPDEST PUSH2 0x182 PUSH1 0x4 DUP1 CALLDATASIZE SUB DUP2 ADD SWAP1 PUSH2 0x17D SWAP2 SWAP1 PUSH2 0x67C JUMP JUMPDEST PUSH2 0x47E JUMP JUMPDEST STOP JUMPDEST PUSH0 SLOAD DUP2 JUMP JUMPDEST PUSH0 DUP2 GT PUSH2 0x1CB JUMPI PUSH1 0x40 MLOAD PUSH32 0x8C379A000000000000000000000000000000000000000000000000000000000 DUP2 MSTORE PUSH1 0x4 ADD PUSH2 0x1C2 SWAP1 PUSH2 0x792 JUMP JUMPDEST PUSH1 0x40 MLOAD DUP1 SWAP2 SUB SWAP1 REVERT JUMPDEST DUP1 PUSH0 DUP1 DUP3 DUP3 SLOAD PUSH2 0x1DB SWAP2 SWAP1 PUSH2 0x7DD JUMP JUMPDEST SWAP3 POP POP DUP2 SWAP1 SSTORE POP DUP1 PUSH1 0x3 PUSH0 DUP5 PUSH20 0xFFFFFFFFFFFFFFFFFFFFFFFFFFFFFFFFFFFFFFFF AND PUSH20 0xFFFFFFFFFFFFFFFFFFFFFFFFFFFFFFFFFFFFFFFF AND DUP2 MSTORE PUSH1 0x20 ADD SWAP1 DUP2 MSTORE PUSH1 0x20 ADD PUSH0 KECCAK256 PUSH0 DUP3 DUP3 SLOAD PUSH2 0x22E SWAP2 SWAP1 PUSH2 0x7DD JUMP JUMPDEST SWAP3 POP POP DUP2 SWAP1 SSTORE POP POP POP JUMP JUMPDEST PUSH1 0x2 PUSH0 SWAP1 SLOAD SWAP1 PUSH2 0x100 EXP SWAP1 DIV PUSH20 0xFFFFFFFFFFFFFFFFFFFFFFFFFFFFFFFFFFFFFFFF AND DUP2 JUMP JUMPDEST PUSH0 DUP2 GT PUSH2 0x2A0 JUMPI PUSH1 0x40 MLOAD PUSH32 0x8C379A000000000000000000000000000000000000000000000000000000000 DUP2 MSTORE PUSH1 0x4 ADD PUSH2 0x297 SWAP1 PUSH2 0x792 JUMP JUMPDEST PUSH1 0x40 MLOAD DUP1 SWAP2 SUB SWAP1 REVERT JUMPDEST DUP1 PUSH1 0x3 PUSH0 CALLER PUSH20 0xFFFFFFFFFFFFFFFFFFFFFFFFFFFFFFFFFFFFFFFF AND PUSH20 0xFFFFFFFFFFFFFFFFFFFFFFFFFFFFFFFFFFFFFFFF AND DUP2 MSTORE PUSH1 0x20 ADD SWAP1 DUP2 MSTORE PUSH1 0x20 ADD PUSH0 KECCAK256 SLOAD LT ISZERO PUSH2 0x320 JUMPI PUSH1 0x40 MLOAD PUSH32 0x8C379A000000000000000000000000000000000000000000000000000000000 DUP2 MSTORE PUSH1 0x4 ADD PUSH2 0x317 SWAP1 PUSH2 0x85A JUMP JUMPDEST PUSH1 0x40 MLOAD DUP1 SWAP2 SUB SWAP1 REVERT JUMPDEST DUP1 PUSH1 0x3 PUSH0 CALLER PUSH20 0xFFFFFFFFFFFFFFFFFFFFFFFFFFFFFFFFFFFFFFFF AND PUSH20 0xFFFFFFFFFFFFFFFFFFFFFFFFFFFFFFFFFFFFFFFF AND DUP2 MSTORE PUSH1 0x20 ADD SWAP1 DUP2 MSTORE PUSH1 0x20 ADD PUSH0 KECCAK256 PUSH0 DUP3 DUP3 SLOAD PUSH2 0x36C SWAP2 SWAP1 PUSH2 0x878 JUMP JUMPDEST SWAP3 POP POP DUP2 SWAP1 SSTORE POP DUP1 PUSH1 0x3 PUSH0 DUP5 PUSH20 0xFFFFFFFFFFFFFFFFFFFFFFFFFFFFFFFFFFFFFFFF AND PUSH20 0xFFFFFFFFFFFFFFFFFFFFFFFFFFFFFFFFFFFFFFFF AND DUP2 MSTORE PUSH1 0x20 ADD SWAP1 DUP2 MSTORE PUSH1 0x20 ADD PUSH0 KECCAK256 PUSH0 DUP3 DUP3 SLOAD PUSH2 0x3BF SWAP2 SWAP1 PUSH2 0x7DD JUMP JUMPDEST SWAP3 POP POP DUP2 SWAP1 SSTORE POP POP POP JUMP JUMPDEST PUSH1 0x1 SLOAD DUP2 JUMP JUMPDEST PUSH1 0x2 PUSH0 SWAP1 SLOAD SWAP1 PUSH2 0x100 EXP SWAP1 DIV PUSH20 0xFFFFFFFFFFFFFFFFFFFFFFFFFFFFFFFFFFFFFFFF AND PUSH20 0xFFFFFFFFFFFFFFFFFFFFFFFFFFFFFFFFFFFFFFFF AND CALLER PUSH20 0xFFFFFFFFFFFFFFFFFFFFFFFFFFFFFFFFFFFFFFFF AND EQ PUSH2 0x45F JUMPI PUSH1 0x40 MLOAD PUSH32 0x8C379A000000000000000000000000000000000000000000000000000000000 DUP2 MSTORE PUSH1 0x4 ADD PUSH2 0x456 SWAP1 PUSH2 0x91B JUMP JUMPDEST PUSH1 0x40 MLOAD DUP1 SWAP2 SUB SWAP1 REVERT JUMPDEST DUP1 PUSH1 0x1 DUP2 SWAP1 SSTORE POP POP JUMP JUMPDEST PUSH1 0x3 PUSH1 0x20 MSTORE DUP1 PUSH0 MSTORE PUSH1 0x40 PUSH0 KECCAK256 PUSH0 SWAP2 POP SWAP1 POP SLOAD DUP2 JUMP JUMPDEST DUP1 PUSH1 0x3 PUSH0 DUP5 PUSH20 0xFFFFFFFFFFFFFFFFFFFFFFFFFFFFFFFFFFFFFFFF AND PUSH20 0xFFFFFFFFFFFFFFFFFFFFFFFFFFFFFFFFFFFFFFFF AND DUP2 MSTORE PUSH1 0x20 ADD SWAP1 DUP2 MSTORE PUSH1 0x20 ADD PUSH0 KECCAK256 SLOAD LT ISZERO PUSH2 0x4FE JUMPI PUSH1 0x40 MLOAD PUSH32 0x8C379A000000000000000000000000000000000000000000000000000000000 DUP2 MSTORE PUSH1 0x4 ADD PUSH2 0x4F5 SWAP1 PUSH2 0x85A JUMP JUMPDEST PUSH1 0x40 MLOAD DUP1 SWAP2 SUB SWAP1 REVERT JUMPDEST PUSH1 0x1 SLOAD DUP2 GT ISZERO PUSH2 0x543 JUMPI PUSH1 0x40 MLOAD PUSH32 0x8C379A000000000000000000000000000000000000000000000000000000000 DUP2 MSTORE PUSH1 0x4 ADD PUSH2 0x53A SWAP1 PUSH2 0x9A9 JUMP JUMPDEST PUSH1 0x40 MLOAD DUP1 SWAP2 SUB SWAP1 REVERT JUMPDEST DUP1 PUSH0 DUP1 DUP3 DUP3 SLOAD PUSH2 0x553 SWAP2 SWAP1 PUSH2 0x878 JUMP JUMPDEST SWAP3 POP POP DUP2 SWAP1 SSTORE POP DUP1 PUSH1 0x3 PUSH0 DUP5 PUSH20 0xFFFFFFFFFFFFFFFFFFFFFFFFFFFFFFFFFFFFFFFF AND PUSH20 0xFFFFFFFFFFFFFFFFFFFFFFFFFFFFFFFFFFFFFFFF AND DUP2 MSTORE PUSH1 0x20 ADD SWAP1 DUP2 MSTORE PUSH1 0x20 ADD PUSH0 KECCAK256 PUSH0 DUP3 DUP3 SLOAD PUSH2 0x5A6 SWAP2 SWAP1 PUSH2 0x878 JUMP JUMPDEST SWAP3 POP POP DUP2 SWAP1 SSTORE POP PUSH0 DUP1 SLOAD LT ISZERO PUSH2 0x5BF JUMPI PUSH2 0x5BE PUSH2 0x9C7 JUMP JUMPDEST JUMPDEST POP POP JUMP JUMPDEST PUSH0 DUP2 SWAP1 POP SWAP2 SWAP1 POP JUMP JUMPDEST PUSH2 0x5D5 DUP2 PUSH2 0x5C3 JUMP JUMPDEST DUP3 MSTORE POP POP JUMP JUMPDEST PUSH0 PUSH1 0x20 DUP3 ADD SWAP1 POP PUSH2 0x5EE PUSH0 DUP4 ADD DUP5 PUSH2 0x5CC JUMP JUMPDEST SWAP3 SWAP2 POP POP JUMP JUMPDEST PUSH0 DUP1 REVERT JUMPDEST PUSH0 PUSH20 0xFFFFFFFFFFFFFFFFFFFFFFFFFFFFFFFFFFFFFFFF DUP3 AND SWAP1 POP SWAP2 SWAP1 POP JUMP JUMPDEST PUSH0 PUSH2 0x621 DUP3 PUSH2 0x5F8 JUMP JUMPDEST SWAP1 POP SWAP2 SWAP1 POP JUMP JUMPDEST PUSH2 0x631 DUP2 PUSH2 0x617 JUMP JUMPDEST DUP2 EQ PUSH2 0x63B JUMPI PUSH0 DUP1 REVERT JUMPDEST POP JUMP JUMPDEST PUSH0 DUP2 CALLDATALOAD SWAP1 POP PUSH2 0x64C DUP2 PUSH2 0x628 JUMP JUMPDEST SWAP3 SWAP2 POP POP JUMP JUMPDEST PUSH2 0x65B DUP2 PUSH2 0x5C3 JUMP JUMPDEST DUP2 EQ PUSH2 0x665 JUMPI PUSH0 DUP1 REVERT JUMPDEST POP JUMP JUMPDEST PUSH0 DUP2 CALLDATALOAD SWAP1 POP PUSH2 0x676 DUP2 PUSH2 0x652 JUMP JUMPDEST SWAP3 SWAP2 POP POP JUMP JUMPDEST PUSH0 DUP1 PUSH1 0x40 DUP4 DUP6 SUB SLT ISZERO PUSH2 0x692 JUMPI PUSH2 0x691 PUSH2 0x5F4 JUMP JUMPDEST JUMPDEST PUSH0 PUSH2 0x69F DUP6 DUP3 DUP7 ADD PUSH2 0x63E JUMP JUMPDEST SWAP3 POP POP PUSH1 0x20 PUSH2 0x6B0 DUP6 DUP3 DUP7 ADD PUSH2 0x668 JUMP JUMPDEST SWAP2 POP POP SWAP3 POP SWAP3 SWAP1 POP JUMP JUMPDEST PUSH2 0x6C3 DUP2 PUSH2 0x617 JUMP JUMPDEST DUP3 MSTORE POP POP JUMP JUMPDEST PUSH0 PUSH1 0x20 DUP3 ADD SWAP1 POP PUSH2 0x6DC PUSH0 DUP4 ADD DUP5 PUSH2 0x6BA JUMP JUMPDEST SWAP3 SWAP2 POP POP JUMP JUMPDEST PUSH0 PUSH1 0x20 DUP3 DUP5 SUB SLT ISZERO PUSH2 0x6F7 JUMPI PUSH2 0x6F6 PUSH2 0x5F4 JUMP JUMPDEST JUMPDEST PUSH0 PUSH2 0x704 DUP5 DUP3 DUP6 ADD PUSH2 0x668 JUMP JUMPDEST SWAP2 POP POP SWAP3 SWAP2 POP POP JUMP JUMPDEST PUSH0 PUSH1 0x20 DUP3 DUP5 SUB SLT ISZERO PUSH2 0x722 JUMPI PUSH2 0x721 PUSH2 0x5F4 JUMP JUMPDEST JUMPDEST PUSH0 PUSH2 0x72F DUP5 DUP3 DUP6 ADD PUSH2 0x63E JUMP JUMPDEST SWAP2 POP POP SWAP3 SWAP2 POP POP JUMP JUMPDEST PUSH0 DUP3 DUP3 MSTORE PUSH1 0x20 DUP3 ADD SWAP1 POP SWAP3 SWAP2 POP POP JUMP JUMPDEST PUSH32 0x416D6F756E74206D7573742062652067726561746572207468616E2030000000 PUSH0 DUP3 ADD MSTORE POP JUMP JUMPDEST PUSH0 PUSH2 0x77C PUSH1 0x1D DUP4 PUSH2 0x738 JUMP JUMPDEST SWAP2 POP PUSH2 0x787 DUP3 PUSH2 0x748 JUMP JUMPDEST PUSH1 0x20 DUP3 ADD SWAP1 POP SWAP2 SWAP1 POP JUMP JUMPDEST PUSH0 PUSH1 0x20 DUP3 ADD SWAP1 POP DUP2 DUP2 SUB PUSH0 DUP4 ADD MSTORE PUSH2 0x7A9 DUP2 PUSH2 0x770 JUMP JUMPDEST SWAP1 POP SWAP2 SWAP1 POP JUMP JUMPDEST PUSH32 0x4E487B7100000000000000000000000000000000000000000000000000000000 PUSH0 MSTORE PUSH1 0x11 PUSH1 0x4 MSTORE PUSH1 0x24 PUSH0 REVERT JUMPDEST PUSH0 PUSH2 0x7E7 DUP3 PUSH2 0x5C3 JUMP JUMPDEST SWAP2 POP PUSH2 0x7F2 DUP4 PUSH2 0x5C3 JUMP JUMPDEST SWAP3 POP DUP3 DUP3 ADD SWAP1 POP DUP1 DUP3 GT ISZERO PUSH2 0x80A JUMPI PUSH2 0x809 PUSH2 0x7B0 JUMP JUMPDEST JUMPDEST SWAP3 SWAP2 POP POP JUMP JUMPDEST PUSH32 0x496E73756666696369656E742062616C616E6365000000000000000000000000 PUSH0 DUP3 ADD MSTORE POP JUMP JUMPDEST PUSH0 PUSH2 0x844 PUSH1 0x14 DUP4 PUSH2 0x738 JUMP JUMPDEST SWAP2 POP PUSH2 0x84F DUP3 PUSH2 0x810 JUMP JUMPDEST PUSH1 0x20 DUP3 ADD SWAP1 POP SWAP2 SWAP1 POP JUMP JUMPDEST PUSH0 PUSH1 0x20 DUP3 ADD SWAP1 POP DUP2 DUP2 SUB PUSH0 DUP4 ADD MSTORE PUSH2 0x871 DUP2 PUSH2 0x838 JUMP JUMPDEST SWAP1 POP SWAP2 SWAP1 POP JUMP JUMPDEST PUSH0 PUSH2 0x882 DUP3 PUSH2 0x5C3 JUMP JUMPDEST SWAP2 POP PUSH2 0x88D DUP4 PUSH2 0x5C3 JUMP JUMPDEST SWAP3 POP DUP3 DUP3 SUB SWAP1 POP DUP2 DUP2 GT ISZERO PUSH2 0x8A5 JUMPI PUSH2 0x8A4 PUSH2 0x7B0 JUMP JUMPDEST JUMPDEST SWAP3 SWAP2 POP POP JUMP JUMPDEST PUSH32 0x4F6E6C7920636F6E7472616374206F776E65722063616E2063616C6C20746869 PUSH0 DUP3 ADD MSTORE PUSH32 0x732066756E6374696F6E00000000000000000000000000000000000000000000 PUSH1 0x20 DUP3 ADD MSTORE POP JUMP JUMPDEST PUSH0 PUSH2 0x905 PUSH1 0x2A DUP4 PUSH2 0x738 JUMP JUMPDEST SWAP2 POP PUSH2 0x910 DUP3 PUSH2 0x8AB JUMP JUMPDEST PUSH1 0x40 DUP3 ADD SWAP1 POP SWAP2 SWAP1 POP JUMP JUMPDEST PUSH0 PUSH1 0x20 DUP3 ADD SWAP1 POP DUP2 DUP2 SUB PUSH0 DUP4 ADD MSTORE PUSH2 0x932 DUP2 PUSH2 0x8F9 JUMP JUMPDEST SWAP1 POP SWAP2 SWAP1 POP JUMP JUMPDEST PUSH32 0x5472616E73616374696F6E20616D6F756E742065786365656473206D6178696D PUSH0 DUP3 ADD MSTORE PUSH32 0x756D20616C6C6F77656400000000000000000000000000000000000000000000 PUSH1 0x20 DUP3 ADD MSTORE POP JUMP JUMPDEST PUSH0 PUSH2 0x993 PUSH1 0x2A DUP4 PUSH2 0x738 JUMP JUMPDEST SWAP2 POP PUSH2 0x99E DUP3 PUSH2 0x939 JUMP JUMPDEST PUSH1 0x40 DUP3 ADD SWAP1 POP SWAP2 SWAP1 POP JUMP JUMPDEST PUSH0 PUSH1 0x20 DUP3 ADD SWAP1 POP DUP2 DUP2 SUB PUSH0 DUP4 ADD MSTORE PUSH2 0x9C0 DUP2 PUSH2 0x987 JUMP JUMPDEST SWAP1 POP SWAP2 SWAP1 POP JUMP JUMPDEST PUSH32 0x4E487B7100000000000000000000000000000000000000000000000000000000 PUSH0 MSTORE PUSH1 0x1 PUSH1 0x4 MSTORE PUSH1 0x24 PUSH0 REVERT INVALID LOG2 PUSH5 0x6970667358 0x22 SLT KECCAK256 0xB9 LOG2 0x4F 0xB7 0xE4 SLT 0x22 DUP15 BLOBHASH PUSH28 0xA37FFB78DE421B123958E33F0CCCFB03C50E97E25B2664736F6C6343 STOP ADDMOD BYTE STOP CALLER "
				},
				"gasEstimates": {
					"creation": {
						"codeDepositCost": "520400",
						"executionCost": "51930",
						"totalCost": "572330"
					},
					"external": {
						"balance(address)": "2846",
						"changeMaxTransaction(uint256)": "24706",
						"deposit(address,uint256)": "infinite",
						"maxTransaction()": "2425",
						"owner()": "2553",
						"totalSupply()": "2425",
						"transfer(address,uint256)": "infinite",
						"withdraw(address,uint256)": "infinite"
					}
				},
				"methodIdentifiers": {
					"balance(address)": "e3d670d7",
					"changeMaxTransaction(uint256)": "cd73ab02",
					"deposit(address,uint256)": "47e7ef24",
					"maxTransaction()": "c3f70b52",
					"owner()": "8da5cb5b",
					"totalSupply()": "18160ddd",
					"transfer(address,uint256)": "a9059cbb",
					"withdraw(address,uint256)": "f3fef3a3"
				}
			},
			"storageLayout": {
				"storage": [
					{
						"astId": 4,
						"contract": "module1.sol:MyToken",
						"label": "totalSupply",
						"offset": 0,
						"slot": "0",
						"type": "t_uint256"
					},
					{
						"astId": 7,
						"contract": "module1.sol:MyToken",
						"label": "maxTransaction",
						"offset": 0,
						"slot": "1",
						"type": "t_uint256"
					},
					{
						"astId": 9,
						"contract": "module1.sol:MyToken",
						"label": "owner",
						"offset": 0,
						"slot": "2",
						"type": "t_address"
					},
					{
						"astId": 13,
						"contract": "module1.sol:MyToken",
						"label": "balance",
						"offset": 0,
						"slot": "3",
						"type": "t_mapping(t_address,t_uint256)"
					}
				],
				"types": {
					"t_address": {
						"encoding": "inplace",
						"label": "address",
						"numberOfBytes": "20"
					},
					"t_mapping(t_address,t_uint256)": {
						"encoding": "mapping",
						"key": "t_address",
						"label": "mapping(address => uint256)",
						"numberOfBytes": "32",
						"value": "t_uint256"
					},
					"t_uint256": {
						"encoding": "inplace",
						"label": "uint256",
						"numberOfBytes": "32"
					}
				}
			},
			"userdoc": {
				"kind": "user",
				"methods": {},
				"version": 1
			}
		}
	}
}